:020000040800F2
:1000000000500020B10A00087B0A0008810A00089D
:10001000870A00088D0A0008930A00080000000003
:10002000000000000000000000000000990A000825
:100030009F0A000800000000A50A0008AB0A00089B
:10004000750A0008750A0008750A0008750A000894
:10005000750A0008750A0008750A0008750A000884
:10006000750A0008750A0008750A0008750A000874
:10007000750A0008750A0008750A0008750A000864
:10008000750A0008750A0008750A0008750A000854
:10009000750A0008750A0008750A0008750A000844
:1000A000750A0008750A0008750A0008750A000834
:1000B000750A0008750A000800000000750A0008AB
:1000C000750A00080000000000000000750A000822
:1000D00000000000750A0008750A00080000000012
:1000E000750A0008750A0008750A0008000000007B
:1000F0000000000000000000000000000000000000
:0C01000000000000000000005FF808F1A3
:1001100080B483B000AF786005E07B68013B7B6012
:10012000054A7B6813607B68002BF6D100BF00BFD7
:100130000C37BD4680BC70470400002080B584B0F9
:1001400000AF0B4BFB60FB681B68BB60BB687B6050
:10015000084B4FF0A5321A60074B3B603B6883F3B6
:10016000088800BF7B68984700BF1037BD4680BD38
:1001700004600008000000200028002080B582B044
:1001800000AF00F05DFC042000F0AAFA02220D216D
:10019000022000F0D9FA0D21022000F0F3FA034604
:1001A000012B05D100220D21022000F009FB04E003
:1001B00001220D21022000F003FB00F08BF93860D2
:1001C000386800F03DF900237B6002E07B68013372
:1001D0007B607B6847F22F529342F7D9DBE700BF81
:1001E00080B485B000AF0346FB710123FB730F4B56
:1001F0005B6803F00103002B01D1002311E00B4BDE
:10020000DA690A490A4B1340CB61084BDB69FA797A
:10021000002A01D1074A00E0074A04491343CB6191
:10022000FB7B18461437BD4680BC70470064004015
:1002300000FC80FC070078010300780180B483B0E3
:1002400000AF0023FB710D4B1B680C4A23F0020327
:1002500013600A4B1B68094A43F001031360074B04
:100260005B6803F00103002B01D00123FB71FB79D4
:1002700018460C37BD4680BC704700BF0064004084
:1002800080B582B000AF0023FB71022000F028FA95
:100290000346FB71062000F023FA0346FB710120A0
:1002A00000F01EFA0346FB7104220B21002000F02F
:1002B0004BFA0D220C21002000F046FAFFF7BEFF9A
:1002C0000346FB710120FFF78BFF0346FB7100F033
:1002D00070F80346FB71012000F007F80346FB713C
:1002E000FB7918460837BD4680BD80B485B000AFA5
:1002F0000346FB710023FB73FB79022B24D0022BF6
:1003000029DC002B02D0012B0FD024E0174B1B68F7
:10031000164A43F002031360144B5B6803F00203B8
:10032000002B1AD00123FB7317E0104B1B680F4AF8
:1003300023F0010313600D4B5B6803F00103002BF6
:100340000DD00123FB730AE0084B1B68074A43F4F6
:100350000043136004E000BF02E000BF00E000BF04
:10036000FB7B18461437BD4680BC704700640040D4
:1003700080B483B000AF0346FB71FB79022B05D03C
:10038000022B06DC002B03D0012B02E000BF00E0B3
:1003900000BF012318460C37BD4680BC704780B4AF
:1003A00083B000AF7860012318460C37BD4680BC8F
:1003B000704780B483B000AF0E237B801F4BD3F80F
:1003C00000321E4A43F00103C2F800321B4B0022E8
:1003D000C3F80422194B43F6FF72C3F80C22174BE3
:1003E000FF22C3F8142200237B600FE0134A7B68CE
:1003F0004833002142F83310104A7B684833DB0051
:10040000134400225A607B6801337B607B887A68E2
:100410009A42EBDB094B43F6FF72C3F81C22074BF1
:10042000D3F80032054A23F00103C2F80032012359
:1004300018460C37BD4680BC704700BF00640040C2
:1004400080B483B000AF7860204B9B6803F080637A
:10045000002B34D07B689B791D4A03F00F03536057
:100460007B68DB7A1A467B681B7B1B021A437B681E
:100470005B7B1B041A437B689B7B1B061A43144B54
:10048000DA607B68DB791A467B681B7A1B021A43A9
:100490007B685B7A1B041A437B689B7A1B061A43B2
:1004A0000B4B9A607B681B68094A5B051360084B1D
:1004B0001B68074A43F001031360012300E0002397
:1004C00018460C37BD4680BC704700BF0064004032
:1004D0008065004080B483B000AF514BDB6803F00F
:1004E0000303002B05D14E4B1B6903F00303002BC4
:1004F00066D04B4BDB6803F00303002B30D0484B36
:10050000D3F8B0319B08DBB203F00103DAB2454BFC
:100510001A71434BD3F8B0315B08DBB203F001032F
:10052000DAB2404B5A713E4BD3F8B431DBB203F030
:100530000F03DAB23B4B9A71394BD3F8B8317B6079
:10054000374BD3F8BC313B60354BD3F8B031354A2B
:100550001360334BDB68324A43F02003D3602FE053
:100560002F4BD3F8C0319B08DBB203F00103DAB2A2
:100570002C4B1A712A4BD3F8C0315B08DBB203F065
:100580000103DAB2274B5A71254BD3F8C431DBB2E1
:1005900003F00F03DAB2234B9A71214BD3F8C83121
:1005A0007B601F4BD3F8CC313B601D4BD3F8C0317F
:1005B0001C4A13601A4B1B69194A43F0200313614C
:1005C000184B1B79012B07D1164B1B68DB08C3F3B3
:1005D0001103144A136004E0124B1B685B0D114AAF
:1005E00013603A790F4BDA717A790E4B1A72BA7935
:1005F0000C4B5A72FA790B4B9A723A78094BDA72B1
:100600007A78084B1A73BA78064B5A73FA78054B06
:100610009A73044B18460C37BD4680BC704700BF28
:10062000006400402000002080B500AF0C4B1B6828
:1006300003F48033002B05D1094B1B68084A43F4AF
:100640008033136000BF064B1B6803F40033002B9C
:10065000F9D0044800F008F80123184680BD00BF17
:1006600000100240640B000880B483B000AF7860D3
:100670001A4B5A687B6819697B685B6919437B6808
:100680009B6919437B68DB6919437B68DB68194305
:100690007B689B680B43114913434B600F4B1B68EE
:1006A00003F08073002B05D10C4B1B680B4A43F001
:1006B0008073136000BF094B1B6803F00073002BAD
:1006C000F9D0064B5B68054A43F0020353600123EF
:1006D00018460C37BD4680BC704700BF0010024072
:1006E00080B483B000AF0346FB71FB79012B06D1C8
:1006F000144BDB69134A43F00073D3611CE0FB79B0
:10070000062B06D10F4B9B690E4A43F00103936100
:1007100012E0FB79022B06D10A4B9B69094A43F090
:100720000403936108E0FB79042B05D1054B9B6919
:10073000044A43F010039361012318460C37BD4669
:1007400080BC70470010024080B582B000AF034605
:10075000FB710B46BB7113467B71094AFB79137021
:10076000074ABB795370064A7B79D370044B002249
:100770009A70034800F0A2F800BF0837BD4680BD5C
:100780003000002080B582B000AF03460A46FB71FE
:100790001346BB71094AFB791370084ABB79537041
:1007A000064800F029F80346012B02D1034B9B7841
:1007B00000E0032318460837BD4680BD3000002006
:1007C00080B582B000AF0346FB710B46BB71134688
:1007D0007B71084AFB791370064ABB795370054A4E
:1007E0007B799370034800F02BF800BF0837BD46B3
:1007F00080BD00BF3000002080B485B000AF7860BD
:100800000123FB737B681B78022B10D10B4B9B6879
:10081000BB607B685B781A46012393401A46BB682D
:1008200013407A685278D340DAB27B689A70FB7BC7
:1008300018461437BD4680BC704700BF0010014009
:1008400080B485B000AF78600023FB737B681B78B1
:10085000022B11D17B685B781A467B689B7803F08A
:100860000103002B01D1102300E0002313440122D7
:100870009A40054B1A6100E000BFFB7B1846143715
:10088000BD4680BC704700BF0010014080B485B0F9
:1008900000AF78600023FB73FB7B18461437BD461E
:1008A00080BC704780B485B000AF78600023FB73D4
:1008B000FB7B18461437BD4680BC704780B485B0BA
:1008C00000AF786000237B730023FB730023BB73AE
:1008D0007B685B78072B08D90123BB737B685B7847
:1008E000083BDBB29B00FB7303E07B685B789B00FB
:1008F000FB737B681B78022B5DD0022B00F3868094
:10090000002B02D0012B2BD080E0BB7B002B13D01F
:100910007B68DB781A46FB7B02FA03F31946FB7B04
:100920000F2202FA03F3DB431A463C4B5B68134089
:100930003A4A0B4353606AE07B68DB781A46FB7BDC
:1009400002FA03F31946FB7B0F2202FA03F3DB439F
:100950001A46324B1B681340304A0B43136056E073
:10096000BB7B002B13D07B68DB781A46FB7B02FA3B
:1009700003F31946FB7B0F2202FA03F3DB431A460B
:10098000274B5B681340264A0B4353603FE07B686C
:10099000DB781A46FB7B02FA03F31946FB7B0F2236
:1009A00002FA03F3DB431A461D4B1B6813401C4A33
:1009B0000B4313602BE0BB7B002B13D07B68DB78F1
:1009C0001A46FB7B02FA03F31946FB7B0F2202FA5D
:1009D00003F3DB431A46134B5B681340114A0B4386
:1009E000536014E07B68DB781A46FB7B02FA03F362
:1009F0001946FB7B0F2202FA03F3DB431A46094B2D
:100A00001B681340074A0B43136000E000BF7B7B69
:100A100018461437BD4680BC704700BF000801402F
:100A2000000C01400010014080B485B000AF786038
:100A30000023FB73FB7B18461437BD4680BC704710
:100A400080B500AFFFF7F0FD0346012B01D0002376
:100A50000EE000F070F80346012B01D0002307E000
:100A6000FFF70EFC0346012B01D0002300E0012319
:100A7000184680BD80B400AFFEE780B400AFFEE74B
:100A800080B400AFFEE780B400AFFEE780B400AFF3
:100A9000FEE780B400AFFEE780B400AFFEE780B4AD
:100AA00000AFFEE780B400AFFEE780B400AFFEE722
:100AB00080B500AF00F004F8FFF760FB00BF80BD19
:100AC00080B487B000AF134B7B61134B3B61134B7A
:100AD000BB60134BFB60134B7B6007E07A69131D0F
:100AE0007B613B69191D396112681A603A69BB68FC
:100AF0009A42F3D104E0FB681A1DFA6000221A60E2
:100B0000FA687B689A42F6D100BF00BF1C37BD4629
:100B100080BC7047840B000800000020000000200B
:100B2000040000203400002080B400AF01231846E8
:100B3000BD4680BC704780B400AF01231846BD4657
:100B400080BC7047010000000100000001000000AF
:100B50000100000001000000010000000100000091
:100B60000100000000000000000000000000010083
:100B700000001C0000000000000400000000000055
:040B800000C00000B1
:040B8400000000006D
:0400000508000AB134
:00000001FF
