:020000040800F2
:10600000002800202D620008F7620008FD620008E9
:1060100003630008096300080F6300080000000024
:1060200000000000000000000000000015630008F0
:106030001B630008000000002163000827630008BC
:10604000F1620008F1620008F1620008F1620008E4
:10605000F1620008F1620008F1620008F1620008D4
:10606000F1620008F1620008F1620008F1620008C4
:10607000F1620008F1620008F1620008F1620008B4
:10608000F1620008F1620008F1620008F1620008A4
:10609000F1620008F1620008F1620008F162000894
:1060A000F1620008F1620008F1620008F162000884
:1060B000F1620008F162000800000000F1620008CF
:1060C000F16200080000000000000000F16200081A
:1060D00000000000F1620008F1620008000000000A
:1060E000F1620008F1620008F1620008000000009F
:1060F00000000000000000000000000000000000A0
:0C61000000000000000000005FF808F143
:1061100080B483B000AF78600B467B807B6810331F
:106120001A467B88136000BF0C37BD4680BC7047A1
:1061300080B483B000AF78600B467B807B881A0404
:106140007B6810331A6000BF0C37BD4680BC7047B7
:1061500080B582B000AF78600B467B80786800F035
:1061600024F803461A467B8813409BB2184608372A
:10617000BD4680BD80B485B000AF78600B467B80A3
:106180007B680C331B68FB607A88FB6813401A0439
:10619000FB68D9437B880B407968103113430B604F
:1061A00000BF1437BD4680BC704780B483B000AFD9
:1061B00078607B6808331B689BB218460C37BD4675
:1061C00080BC704780B483B000AF78600B467B80A2
:1061D0007B680C331A467B88136000BF0C37BD46C2
:1061E00080BC704780B485B000AF78600B467B8080
:1061F0007B8843F480327B6818331A607B681833DD
:106200001A467B8813607B8843F480327B6818339E
:106210001A607B6818331B68FB607B6818331B6847
:10622000FB6000BF1437BD4680BC704780B500AF2F
:1062300000F004F800F04CF800BF80BD80B487B0D7
:1062400000AF134B7B61134B3B61134BBB60134B94
:10625000FB60134B7B6007E07A69131D7B613B6930
:10626000191D396112681A603A69BB689A42F3D104
:1062700004E0FB681A1DFA6000221A60FA687B6865
:106280009A42F6D100BF00BF1C37BD4680BC7047A4
:106290002C63000800000020000000200000002007
:1062A0000800002080B483B000AF786005E07B6810
:1062B000013B7B60054A7B6813607B68002BF6D14D
:1062C00000BF00BF0C37BD4680BC704700000020F7
:1062D00080B500AF4FF400510348FFF74BFF034870
:1062E000FFF7E0FFF6E700BF00100140A0860100C5
:1062F00080B400AFFEE780B400AFFEE780B400AF2B
:10630000FEE780B400AFFEE780B400AFFEE780B4E4
:1063100000AFFEE780B400AFFEE780B400AFFEE759
:0C63200080B400AFFEE780B400AFFEE7E1
:040000050800622D60
:00000001FF
