:020000040800F2
:1000000000500020E5070008AF070008B50700080A
:10001000BB070008C1070008C70700080000000070
:10002000000000000000000000000000CD070008F4
:10003000D307000800000000D9070008DF07000808
:10004000A9070008A9070008A9070008A9070008D0
:10005000A9070008A9070008A9070008A9070008C0
:10006000A9070008A9070008A9070008A9070008B0
:10007000A9070008A9070008A9070008A9070008A0
:10008000A9070008A9070008A9070008A907000890
:10009000A9070008A9070008A9070008A907000880
:1000A000A9070008A9070008A9070008A907000870
:1000B000A9070008A907000800000000A907000818
:1000C000A90700080000000000000000A9070008C0
:1000D00000000000A9070008A907000800000000B0
:1000E000A9070008A9070008A907000800000000E8
:1000F0000000000000000000000000000000000000
:0C01000000000000000000005FF808F1A3
:1001100080B483B000AF786005E07B68013B7B6012
:10012000054A7B6813607B68002BF6D100BF00BFD7
:100130000C37BD4680BC70470400002080B584B0F9
:1001400000AF0B4BFB60FB681B68BB60BB687B6050
:10015000084B4FF0A5321A60074B3B603B6883F3B6
:10016000088800BF7B68984700BF1037BD4680BD38
:1001700004600008000000200028002080B582B044
:1001800000AF00F0F7FA042000F044F902220D213C
:10019000022000F073F90D21022000F08DF90346D2
:1001A000012B05D100220D21022000F0A3F904E06B
:1001B00001220D21022000F09DF900237B6002E066
:1001C0007B6801337B607B68014A9342F8D9E2E7A0
:1001D000DF93040080B582B000AF022000F01AF96E
:1001E0000346FB71062000F015F90346FB71012060
:1001F00000F010F90346FB7100233B700423FB70F1
:100200000B237B703B46184600F0F2F90346FB7166
:100210000D23FB700C237B703B46184600F0E8F979
:100220000346FB7100F02EF80346FB7100F056F810
:100230000346FB71012000F007F80346FB71FB79D0
:1002400018460837BD4680BD80B400AF012318466C
:10025000BD4680BC704780B483B000AF0346FB71DD
:10026000FB79022B05D0022B06DC002B03D0012BDF
:1002700002E000BF00E000BF012318460C37BD4676
:1002800080BC704780B483B000AF00237B607B6884
:1002900043F040737B607B686FEA93236FEA8323AC
:1002A0007B607B6843F470237B607B6843F4E003EE
:1002B0007B60044A7B68D361012318460C37BD4636
:1002C00080BC70470064004080B483B000AF7860A9
:1002D000012318460C37BD4680BC704780B400AF80
:1002E00001231846BD4680BC704780B483B000AF80
:1002F0007860012318460C37BD4680BC704780B437
:1003000083B000AF7860012318460C37BD4680BC2F
:10031000704700BF80B500AF0C4B1B6803F48033FF
:10032000002B05D1094B1B68084A43F48033136046
:1003300000BF064B1B6803F40033002BF9D00448C0
:1003400000F008F80123184680BD00BF00100240ED
:100350009808000880B485B000AF78600023FB6087
:100360007B681A697B681B69D943FB680B401343A0
:10037000FB607B685A697B685B69D943FB680B400B
:100380001343FB607B689A697B689B69D943FB6870
:100390000B401343FB607B68DA697B68DB69D943F8
:1003A000FB680B401343FB607B68DA687B68DB68A3
:1003B000D943FB680B401343FB607B689A687B68FA
:1003C0009B68D943FB680B401343FB60FB68DA432F
:1003D0000F4B5B681A400E49FB6813434B600C4B94
:1003E0001B6803F08073002B05D1094B1B68084A7A
:1003F00043F08073136000BF054B1B6803F000736C
:10040000002BF9D0012318461437BD4680BC704735
:100410000010024080B483B000AF0346FB71FB794B
:10042000012B06D1144BDB69134A43F00073D361EF
:100430001CE0FB79062B06D10F4B9B690E4A43F05B
:100440000103936112E0FB79022B06D10A4B9B69F1
:10045000094A43F00403936108E0FB79042B05D1BA
:10046000054B9B69044A43F010039361012318462E
:100470000C37BD4680BC70470010024080B582B08A
:1004800000AF0346FB710B46BB7113467B71094AF3
:10049000FB791370074ABB795370064A7B79D37096
:1004A000044B00229A70034800F0A2F800BF0837FE
:1004B000BD4680BD2000002080B582B000AF03465D
:1004C0000A46FB711346BB71094AFB791370084A4F
:1004D000BB795370064800F029F80346012B02D17E
:1004E000034B9B7800E0032318460837BD4680BDC8
:1004F0002000002080B582B000AF0346FB710B46A0
:10050000BB7113467B71084AFB791370064ABB79AD
:100510005370054A7B799370034800F02BF800BFB5
:100520000837BD4680BD00BF2000002080B485B0E4
:1005300000AF78600123FB737B681B78022B10D11E
:100540000B4B9B68BB607B685B781A46012393402A
:100550001A46BB6813407A685278D340DAB27B6897
:100560009A70FB7B18461437BD4680BC704700BFAD
:100570000010014080B485B000AF78600023FB73A9
:100580007B681B78022B11D17B685B781A467B68ED
:100590009B7803F00103002B01D1102300E000231E
:1005A000134401229A40054B1A6100E000BFFB7B17
:1005B00018461437BD4680BC704700BF001001408C
:1005C00080B485B000AF78600023FB73FB7B1846D6
:1005D0001437BD4680BC704780B485B000AF7860EA
:1005E0000023FB73FB7B18461437BD4680BC704765
:1005F00080B485B000AF786000237B730023FB7369
:100600000023BB737B685B78072B08D90123BB737E
:100610007B685B78083BDBB29B00FB7303E07B6885
:100620005B789B00FB737B681B78022B5DD0022BF1
:1006300000F38680002B02D0012B2BD080E0BB7B07
:10064000002B13D07B68DB781A46FB7B02FA03F39E
:100650001946FB7B0F2202FA03F3DB431A463C4B9D
:100660005B6813403A4A0B4353606AE07B68DB786F
:100670001A46FB7B02FA03F31946FB7B0F2202FAB0
:1006800003F3DB431A46324B1B681340304A0B43DB
:10069000136056E0BB7B002B13D07B68DB781A46D7
:1006A000FB7B02FA03F31946FB7B0F2202FA03F3EA
:1006B000DB431A46274B5B681340264A0B435360C3
:1006C0003FE07B68DB781A46FB7B02FA03F31946AE
:1006D000FB7B0F2202FA03F3DB431A461D4B1B6818
:1006E00013401C4A0B4313602BE0BB7B002B13D041
:1006F0007B68DB781A46FB7B02FA03F31946FB7B27
:100700000F2202FA03F3DB431A46134B5B681340D4
:10071000114A0B43536014E07B68DB781A46FB7B7D
:1007200002FA03F31946FB7B0F2202FA03F3DB43C1
:100730001A46094B1B681340074A0B43136000E03D
:1007400000BF7B7B18461437BD4680BC704700BF96
:1007500000080140000C01400010014080B485B049
:1007600000AF78600023FB73FB7B18461437BD464F
:1007700080BC704780B500AFFFF7CCFD0346012B6E
:1007800001D000230EE000F070F80346012B01D0E9
:10079000002307E0FFF71EFD0346012B01D00023D5
:1007A00000E00123184680BD80B400AFFEE780B4AE
:1007B00000AFFEE780B400AFFEE780B400AFFEE715
:1007C00080B400AFFEE780B400AFFEE780B400AFB6
:1007D000FEE780B400AFFEE780B400AFFEE780B470
:1007E00000AFFEE780B500AF00F004F8FFF7C6FCED
:1007F00000BF80BD80B487B000AF134B7B61134B4B
:100800003B61134BBB60134BFB60134B7B6007E0FA
:100810007A69131D7B613B69191D396112681A6081
:100820003A69BB689A42F3D104E0FB681A1DFA608A
:1008300000221A60FA687B689A42F6D100BF00BFB6
:100840001C37BD4680BC7047B80800080000002077
:1008500000000020040000202400002080B400AF2D
:1008600001231846BD4680BC704780B400AF012309
:100870001846BD4680BC7047010000000100000022
:100880000100000001000000010000000100000064
:100890000100000001000000000000000000000056
:1008A0000000010000001C00000000000004000027
:0808B0000000000000C0000080
:0408B800000000003C
:04000005080007E503
:00000001FF
